:020000040000FA
:100000000C948F000C94B7000C94B7000C94B700BC
:100010000C94B7000C94B7000C94B7000C94B70084
:100020000C94B7000C94B7000C94B7000C94B70074
:100030000C94B7000C94B7000C94B7000C94B70064
:100040000C94E8030C94B7000C9458040C943204FC
:100050000C94B7000C94B7000C94B7000C94B70044
:100060000C94B7000C94B70008000000BE9224491D
:10007000123EABAAAA2ABECDCCCC4C3E00000080DA
:10008000BEABAAAAAA3E00000000BF000000803F4D
:100090000000000000084178D3BB4387D1133D190D
:1000A0000E3CC3BD4282AD2B3E68EC8276BED98F3A
:1000B000E1A93E4C80EFFFBE01C4FF7F3F0000007E
:1000C00000000000000023002600290000000008B6
:1000D000000201000003040700000000000000000F
:1000E00000000000250028002B0000000000240074
:1000F00027002A0004040404040404040202020287
:1001000002020303030303030102040810204080DA
:1001100001020408102001020408102070081124B4
:100120001FBECFEFD8E0DEBFCDBF11E0A0E0B1E051
:10013000E8E8F7E102C005900D92A636B107D9F7BD
:1001400022E0A6E6B1E001C01D92AA31B207E1F7B4
:1001500010E0CFE8D0E004C02197FE010E94BC0B64
:10016000CE38D107C9F70E948A040C94C20B0C94B4
:100170000000CF93DF9390E0FC01E85FFE4F2491F5
:100180008C509F4FFC0184918823D1F090E0880F20
:10019000991FFC01E651FF4FA591B491FC01E0527B
:1001A000FF4FC591D491623071F49FB7F8943C91A0
:1001B000822F809583238C93E8812E2B28839FBFE9
:1001C000DF91CF9108958FB7F894EC912E2B2C935B
:1001D0008FBFF6CF8E3008F08E508770806480938A
:1001E0007C0080917A00806480937A0080917A000C
:1001F00086FDFCCF80917800909179000895AF92B0
:10020000BF92CF92DF92EF92FF920F931F93CF9303
:10021000DF936C017B018B01040F151FEB015E0165
:10022000AE18BF08C017D10759F06991D601ED91FA
:10023000FC910190F081E02DC6010995892B79F799
:10024000C501DF91CF911F910F91FF90EF90DF904B
:10025000CF90BF90AF900895FC01538D448D252F12
:1002600030E0842F90E0821B930B541710F0CF9650
:10027000089501970895FC01918D828D981761F082
:10028000A28DAE0FBF2FB11D5D968C91928D9F5F99
:100290009F73928F90E008958FEF9FEF0895FC0178
:1002A000918D828D981731F0828DE80FF11D858D2B
:1002B00090E008958FEF9FEF0895FC01918D228DBE
:1002C000892F90E0805C9F4F821B91098F73992743
:1002D00008958DE791E00E945D0121E0892B09F4EA
:1002E00020E0822F089580E090E0892B29F00E9481
:1002F000690181110C9400000895FC01A48DA80FE0
:10030000B92FB11DA35ABF4F2C91848D90E0019657
:100310008F739927848FA689B7892C93A089B18977
:100320008C91837080648C93938D848D981306C018
:100330000288F389E02D80818F7D80830895EF927C
:10034000FF920F931F93CF93DF93EC0181E0888F8F
:100350009B8D8C8D98131AC0E889F989808185FF5F
:1003600015C09FB7F894EE89FF896083E889F98901
:1003700080818370806480839FBF81E090E0DF9103
:10038000CF911F910F91FF90EF900895F62E0B8D56
:1003900010E00F5F1F4F0F731127E02E8C8D8E1111
:1003A0000CC00FB607FCFACFE889F989808185FF78
:1003B000F5CFCE010E947D01F1CFEB8DEC0FFD2F2B
:1003C000F11DE35AFF4FF0829FB7F8940B8FEA8933
:1003D000FB8980818062CFCFCF93DF93EC01888D42
:1003E0008823B9F0AA89BB89E889F9898C9185FDB0
:1003F00003C0808186FD0DC00FB607FCF7CF8C913E
:1004000085FFF2CF808185FFEDCFCE010E947D0177
:10041000E9CFDF91CF910895FC0101900020E9F729
:100420003197AF01481B590BBC018DE791E00C944B
:10043000FF008F929F92AF92BF920F931F93CF9323
:10044000DF93CDB7DEB7A1970FB6F894DEBF0FBE2E
:10045000CDBF19A2423008F44AE08E010F5D1F4F54
:10046000842E912CB12CA12CA50194010E94BC08D2
:10047000E62FB901CA01EA30F4F4E05DD801EE9349
:100480008D01232B242B252B79F790E080E010970A
:1004900019F0CD010E940C02A1960FB6F894DEBFB0
:1004A0000FBECDBFDF91CF911F910F91BF90AF9045
:1004B0009F908F900895E95CE1CFCF92DF92EF9209
:1004C000FF92CF93DF936B017C016DE28DE791E0AA
:1004D0000E949F01EC0166277727CB016C197D09EB
:1004E0008E099F094AE00E9419028C0F9D1FDF911F
:1004F000CF91FF90EF90DF90CF900895CF93DF934F
:10050000BC01990F880B990B97FF0CC00E945D02EC
:10051000EC0182E191E00E940C028C0F9D1FDF91A3
:10052000CF9108954AE00E941902F2CFBC01990FC1
:10053000880B990B97FD0C945D024AE00C9419020C
:100540004F925F926F927F928F929F92AF92BF92E3
:10055000CF92DF92EF92FF920F931F93CF936B0195
:100560007C01742EAC019B010E947B0B882399F0C7
:1005700085E191E0CF911F910F91FF90EF90DF9077
:10058000CF90BF90AF909F908F907F906F905F9033
:100590004F900C940C0246015701E894B7F82FEFE6
:1005A0003FEF4FE75FE7C501B4010E947B0B81116C
:1005B0000DC02FEF3FEF4FE75FE7C501B4010E9489
:1005C0005A0918161CF489E191E0D4CF2FEF3FEFC0
:1005D0004FE75FE4C701B6010E94B90A18161CF480
:1005E0008DE191E0C7CF2FEF3FEF4FE75FECC70101
:1005F000B6010E945A0987FDF3CF20E030E0A9013F
:10060000C701B6010E945A0910E000E087FF0AC046
:100610006DE28DE791E00E949F018C01F7FAF09462
:10062000F7F8F094C0E060E070E080E09FE37C16B3
:1006300041F020E030E040E251E40E945F09CF5FEA
:10064000F6CFA70196010E94EE082B013C010E9403
:10065000D8094B015C014AE00E9419027C01E00EBE
:10066000F11ECC23C1F1C501B4010E94070A9B0110
:10067000AC01C301B2010E94ED084B015C016EE2C6
:100680008DE791E00E949F01E80EF91EC15018F11C
:1006900020E030E040E251E4C501B4010E940E0BBD
:1006A0002B013C010E94D8094B01B12CA12C4AE03E
:1006B000C501B4010E941902E80EF91EC501B4017A
:1006C0000E94070A9B01AC01C301B2010E94ED0820
:1006D0004B015C01DBCFC701CF911F910F91FF90C0
:1006E000EF90DF90CF90BF90AF909F908F907F90D2
:1006F0006F905F904F900895CF92DF92EF92FF92AC
:100700000E94EA00BC01990F880B990B0E94090A0C
:1007100020E030EC4FE754E40E945F0920E030E035
:1007200040EA50E40E940E0B6B017C0120E030E0B7
:10073000A9010E945A0918160CF045C02EE23FEF9D
:100740004FE950E4C701B6010E94B90A87FF3BC0D8
:10075000A701960160E070E080EA90E40E94ED0855
:100760009B01AC01C701B6010E945F0920E030E4A3
:100770004CE156E40E940E0B20E030E44CE156E4DC
:100780000E945F090E94C60A2CE23BEB44E859E351
:100790000E940E0B2FE03FEC4BE55BE30E94EE085E
:1007A0009B01AC0160E070E080E89FE30E945F097C
:1007B00023E333E948E853E40E94ED08FF90EF900B
:1007C000DF90CF90089560E070E088EC92ECF6CF77
:1007D0001F920F920FB60F9211242F933F938F9376
:1007E0009F93AF93BF938091790190917A01A091EB
:1007F0007B01B0917C013091780123E0230F2D37EC
:1008000058F50196A11DB11D2093780180937901BF
:1008100090937A01A0937B01B0937C018091740145
:1008200090917501A0917601B09177010196A11D7B
:10083000B11D8093740190937501A0937601B093DC
:100840007701BF91AF919F918F913F912F910F9021
:100850000FBE0F901F90189526E8230F0296A11D3A
:10086000B11DD2CF1F920F920FB60F9211242F936A
:100870003F934F935F936F937F938F939F93AF9328
:10088000BF93EF93FF938DE791E00E947D01FF916D
:10089000EF91BF91AF919F918F917F916F915F91F8
:1008A0004F913F912F910F900FBE0F901F90189571
:1008B0001F920F920FB60F9211242F938F939F9335
:1008C000EF93FF93E0918D01F0918E018081E09193
:1008D0009301F091940182FD1BC09081809196015B
:1008E0008F5F8F7320919701821741F0E0919601FD
:1008F000F0E0E358FE4F958F80939601FF91EF91C2
:100900009F918F912F910F900FBE0F901F90189570
:100910008081F4CFCF93DF9300D000D000D0CDB74B
:10092000DEB7789484B5826084BD84B5816084BD6F
:1009300085B5826085BD85B5816085BD80916E007D
:10094000816080936E0010928100809181008260AE
:1009500080938100809181008160809381008091EB
:1009600080008160809380008091B10084608093DA
:10097000B1008091B00081608093B00080917A00D6
:10098000846080937A0080917A00826080937A00FC
:1009900080917A00816080937A0080917A008068EB
:1009A00080937A001092C100E0918D01F0918E0148
:1009B00082E08083E0918901F0918A011082E091C8
:1009C0008B01F0918C018FEC808310929501E09166
:1009D0009101F091920186E08083E0918F01F09186
:1009E0009001808180618083E0918F01F09190017E
:1009F000808188608083E0918F01F09190018081F7
:100A000080688083E0918F01F091900180818F7DDB
:100A1000808361E089E00E94B90061E08AE00E9481
:100A2000B90061E083E00E94B90062E084E00E94C6
:100A3000B900109280001092810080918000826045
:100A400080938000809181008861809381008091F3
:100A50008000806A80938000809181008260809312
:100A600081008FE490E0909387008093860010923D
:100A700089001092880010928B0010928A001092C8
:100A8000B0001092B1008091B00083608093B000FC
:100A90008091B10088608093B1008091B000806245
:100AA0008093B0008091B10082608093B1008FE4A8
:100AB0008093B3001092B4001092890010928800C5
:100AC00010928B0010928A001092B4008EE00E9467
:100AD000EA00BC01990F880B990B0E94090A20E0DB
:100AE00030EC4FE754E40E945F099B01AC0160E0E9
:100AF00070E080E89FE30E94ED0820E030E048ECE1
:100B000052E40E940E0B60936C0170936D01809310
:100B10006E0190936F018FE00E94EA00BC01990F73
:100B2000880B990B0E94090A20E030EC4FE754E44F
:100B30000E945F099B01AC0160E070E080E89FE3E8
:100B40000E94ED0820E030E048EC52E40E940E0BD9
:100B5000609368017093690180936A0190936B01BF
:100B6000412C512C32014A9430E0232E30E0332EB8
:100B70002FB7F8948091790190917A01A0917B012F
:100B8000B0917C012FBF4091700150917101609133
:100B90007201709173018C019D01041B150B260BD2
:100BA000370BB901A801443F51406105710508F4B4
:100BB0006EC28093700190937101A0937201B09303
:100BC0007301E0EDF0E08491ECE0F1E09491E8EF66
:100BD000F0E02491222309F455C1882359F0833091
:100BE00009F439C108F02CC1813009F43AC18230CE
:100BF00009F43BC1E22FF0E0EE0FFF1FEE53FF4F71
:100C0000A591B4918C91982321E080E009F420E033
:100C10002D838E838EE090E00E947C0369837A832B
:100C20008B839C838FE090E00E947C036B017C01AE
:100C300026E636E646E65FE360916C0170916D0151
:100C400080916E0190916F010E940E0B4B015C012F
:100C50002DEC3CEC4CEC5DE369817A818B819C81CD
:100C60000E940E0B9B01AC01C501B4010E94EE086D
:100C700060936C0170936D0180936E0190936F018E
:100C800026E636E646E65FE3609168017091690109
:100C900080916A0190916B010E940E0B4B015C01E7
:100CA0002DEC3CEC4CEC5DE3C701B6010E940E0B51
:100CB0009B01AC01C501B4010E94EE08609368017C
:100CC0007093690180936A0190936B0181E291E0D6
:100CD0000E940C0260916C0170916D0180916E0117
:100CE00090916F0142E00E94A00285E291E00E9493
:100CF0000C02609168017091690180916A01909184
:100D00006B0142E00E94A0028CE291E00E940C0282
:100D10008D819E81F1E08F270E947E02C0906C0140
:100D2000D0906D01E0906E01F0906F010D811E81F9
:100D300020E030E040EA51E4C701B601012B09F0A0
:100D4000A4C00E945A0918160CF0C2C020E030E07E
:100D50004CE052E4C701B6010E94B90A06EE10E069
:100D600087FF19C020E030E040EA51E4C701B60136
:100D70000E94ED0820E030E040E751E40E945F0966
:100D800020E030E041E153E40E940E0B0E94D109C3
:100D90008B010B5A1F4F8090680190906901A090C1
:100DA0006A01B0906B0180916701882309F493C0B8
:100DB00020E030E040E751E4C501B4010E945A0947
:100DC00087FD1092670180916701882309F4BFC0F5
:100DD0008D819E8120E030E040EA51E4892B09F0CA
:100DE00089C0C501B4010E945A0918160CF05BC1F4
:100DF00020E030E04CE052E4C501B4010E94B90AA1
:100E0000E6EEF0E087FF19C020E030E040EA51E470
:100E1000C501B4010E94ED0820E030E040E751E454
:100E20000E945F0920E030E041E153E40E940E0B94
:100E30000E94D109FB01EB5AFF4FFA83E98389C075
:100E40008730B1F08830D1F0843009F0D3CE809172
:100E500080008F7D03C0809180008F778093800019
:100E6000C9CE84B58F7784BDC5CE84B58F7DFBCFC9
:100E70008091B0008F778093B000BCCE8091B0009D
:100E80008F7DF9CF1E821D82C5CE0E945A09181689
:100E9000FCF420E030E04CE052E4C701B6010E94CF
:100EA000B90A00E810E087FF76CF20E030E040EAA2
:100EB00051E4C701B6010E94ED0820E030E040E7B0
:100EC00051E40E945F0920E030E04CE252E45CCF44
:100ED00005E510E060CF20E030E040EA51E4C501D4
:100EE000B4010E94B90A18160CF06DCF21E02093CE
:100EF000670169CFC501B4010E945A0918160CF0A8
:100F0000D7C020E030E04CE052E4C501B4010E94BB
:100F1000B90A87FFD0C020E030E040EA51E4C501C3
:100F2000B4010E94ED0820E030E040E751E40E9467
:100F30005F0920E030E04CE252E40E940E0B0E9478
:100F4000D1099B012B5A3F4F3A83298302C01A8251
:100F5000198220E030E048EC51E4C501B4010E9460
:100F60005A0987FFABC01092660180916601D12CAF
:100F7000C12C882389F120E030E048EC51E4C50120
:100F8000B4010E945A0992E7C92ED12C181624F5F3
:100F900020E030E040E252E4C501B4010E94B90A09
:100FA00087FF9AC020E030E048EC51E4C501B4016D
:100FB0000E94ED0820E030E040E751E40E945F0924
:100FC00020E030E04DE053E40E940E0B0E94D10976
:100FD0006B01E2E7CE0ED11CD8010F3F110519F0CD
:100FE00014F0AFEFB0E0B7FF02C0B0E0A0E02FE434
:100FF00030E00E94B50BA30192010E949D0830933E
:10100000890020938800A981BA81AF3FB10519F00A
:1010100014F0AFEFB0E0B7FF02C0B0E0A0E02FE403
:1010200030E00E94B50BA30192010E949D0830930D
:101030008B0020938A00D601FFEFCF16D10419F060
:1010400014F0AFEFB0E0B7FF02C0B0E0A0E02FE4D3
:1010500030E00E94B50BA30192010E949D082093ED
:10106000B4008AE391E00E940C02C6010E9496023D
:1010700085E491E00E940C02C8010E94960285E579
:1010800091E00E940C0289819A810E947E022114C3
:10109000310409F46DCD0E946901882309F464CDFF
:1010A0000E94000061CD85E590E09A83898351CF4D
:1010B00025E530E049CF80E890E0F7CF20E030E050
:1010C00048EC51E4C501B4010E94B90A87FD4DCF37
:1010D00091E09093660149CFCC24CA94D12C7CCF67
:1010E000EDE7F1E01382128288EE93E0A0E0B0E039
:1010F00084839583A683B78384E091E09183808382
:1011000085EC90E09587848784EC90E097878687CC
:1011100080EC90E0918B808B81EC90E0938B828BC4
:1011200082EC90E0958B848B86EC90E0978B868B9D
:10113000118E128E138E148E0895052E97FB1EF4B9
:1011400000940E94B40857FD07D00E94BC0807FC19
:1011500003D04EF40C94B4085095409530952195E9
:101160003F4F4F4F5F4F08959095809570956195D3
:101170007F4F8F4F9F4F0895A1E21A2EAA1BBB1BD2
:10118000FD010DC0AA1FBB1FEE1FFF1FA217B30753
:10119000E407F50720F0A21BB30BE40BF50B661F69
:1011A000771F881F991F1A9469F76095709580952D
:1011B00090959B01AC01BD01CF010895A29FB001A4
:1011C000B39FC001A39F700D811D1124911DB29F7B
:1011D000700D811D1124911D08955058BB27AA2719
:1011E0000E9405090C947F0A0E94710A38F00E943F
:1011F000780A20F039F49F3F19F426F40C946E0A13
:101200000EF4E095E7FB0C94680AE92F0E94900A1F
:1012100058F3BA17620773078407950720F079F42B
:10122000A6F50C94B20A0EF4E0950B2EBA2FA02D61
:101230000B01B90190010C01CA01A0011124FF2783
:10124000591B99F0593F50F4503E68F11A16F0407E
:10125000A22F232F342F4427585FF3CF469537957D
:101260002795A795F0405395C9F77EF41F16BA0B42
:10127000620B730B840BBAF09150A1F0FF0FBB1FF0
:10128000661F771F881FC2F70EC0BA0F621F731F39
:10129000841F48F4879577956795B795F7959E3F96
:1012A00008F0B0CF9395880F08F09927EE0F979527
:1012B000879508950E94440A08F481E008950E94E9
:1012C00073090C947F0A0E94780A58F00E94710AF0
:1012D00040F029F45F3F29F00C94680A51110C94F6
:1012E000B30A0C946E0A0E94900A68F39923B1F332
:1012F000552391F3951B550BBB27AA27621773073C
:10130000840738F09F5F5F4F220F331F441FAA1FCF
:10131000A9F335D00E2E3AF0E0E832D0915050408B
:10132000E695001CCAF72BD0FE2F29D0660F771F39
:10133000881FBB1F261737074807AB07B0E809F01F
:10134000BB0B802DBF01FF2793585F4F3AF09E3FA4
:10135000510578F00C94680A0C94B30A5F3FE4F3EB
:10136000983ED4F3869577956795B795F7959F5FE7
:10137000C9F7880F911D9695879597F90895E1E033
:10138000660F771F881FBB1F621773078407BA0792
:1013900020F0621B730B840BBA0BEE1F88F7E095ED
:1013A00008950E94D8096894B1110C94B30A089565
:1013B0000E94980A88F09F5798F0B92F9927B75143
:1013C000B0F0E1F0660F771F881F991F1AF0BA95E9
:1013D000C9F714C0B13091F00E94B20AB1E008958B
:1013E0000C94B20A672F782F8827B85F39F0B93F7D
:1013F000CCF3869577956795B395D9F73EF490959C
:101400008095709561957F4F8F4F9F4F0895E89419
:1014100009C097FB3EF490958095709561957F4F3C
:101420008F4F9F4F9923A9F0F92F96E9BB279395EA
:10143000F695879577956795B795F111F8CFFAF4FA
:10144000BB0F11F460FF1BC06F5F7F4F8F4F9F4F2B
:1014500016C0882311F096E911C0772321F09EE889
:10146000872F762F05C0662371F096E8862F70E0EF
:1014700060E02AF09A95660F771F881FDAF7880FC9
:101480009695879597F90895990F0008550FAA0B1F
:10149000E0E8FEEF16161706E807F907C0F0121687
:1014A0001306E407F50798F0621B730B840B950B8A
:1014B00039F40A2661F0232B242B252B21F40895DF
:1014C0000A2609F4A140A6958FEF811D811D08957C
:1014D00097F99F6780E870E060E008959FEF80ECE7
:1014E000089500240A94161617061806090608958A
:1014F00000240A9412161306140605060895092EF0
:101500000394000C11F4882352F0BB0F40F4BF2B5E
:1015100011F460FF04C06F5F7F4F8F4F9F4F08959E
:1015200057FD9058440F551F59F05F3F71F0479594
:10153000880F97FB991F61F09F3F79F08795089579
:10154000121613061406551FF2CF4695F1DF08C098
:10155000161617061806991FF1CF869571056105B5
:1015600008940895E894BB2766277727CB0197F95D
:1015700008950E94440A08F48FEF089516F00C9421
:10158000800B0C946E0A68940C94680A0E94980A66
:10159000A8F39923C1F3AEF3DF93CF931F930F9377
:1015A000FF92C92FDD2788232AF02197660F771F26
:1015B000881FDAF720E030E040E85FEB9FE38839EE
:1015C00020F0803E38F021968F770E94EE08E8E602
:1015D000F0E004C00E94EE08E5E9F0E00E948E0B06
:1015E0008B01BE01EC01FB2E6F5771097595771FBA
:1015F000880B990B0E94090A28E132E741E35FE377
:101600000E94210BAF2D9801AE01FF900F911F9109
:10161000CF91DF910E9405090C947F0A0E94210B53
:101620000C947F0A0E94710A38F00E94780A20F018
:10163000952311F00C94680A0C946E0A11240C94F2
:10164000B30A0E94900A70F3959FC1F3950F50E082
:10165000551F629FF001729FBB27F00DB11D639F64
:10166000AA27F00DB11DAA1F649F6627B00DA11D0A
:10167000661F829F2227B00DA11D621F739FB00DB0
:10168000A11D621F839FA00D611D221F749F332720
:10169000A00D611D231F849F600D211D822F762FB9
:1016A0006A2F11249F5750409AF0F1F088234AF096
:1016B000EE0FFF1FBB1F661F771F881F9150504002
:1016C000A9F79E3F510580F00C94680A0C94B30A68
:1016D0005F3FE4F3983ED4F3869577956795B79589
:1016E000F795E7959F5FC1F7FE2B880F911D9695A3
:1016F000879597F908950E94440A880B990B0895DD
:101700009F3F31F0915020F4879577956795B79575
:10171000880F911D9695879597F90895DF93CF933C
:101720001F930F93FF92EF92DF927B018C016894DD
:1017300006C0DA2EEF010E94210BFE01E894A5916C
:101740002591359145915591A6F3EF010E94050928
:10175000FE019701A801DA9469F7DF90EF90FF90FE
:101760000F911F91CF91DF9108950E94DE08B7FF7E
:101770000895821B930B0895EE0FFF1F0590F491BF
:10178000E02D0994F894FFCF000000009F01FF00B6
:101790002C01EC015D013B014F010D0A006E616EF1
:1017A00000696E66006F76660054313D00207C2033
:1017B00054323D00207C2042656E63686D61726B1F
:1017C0003D0066616E50574D56616C3D00207C2097
:1017D00070756D703150574D56616C3D00207C2006
:0E17E00070756D703250574D56616C3D0000B3
:107E0000112484B714BE81FFF0D085E080938100F7
:107E100082E08093C00088E18093C10086E0809377
:107E2000C20080E18093C4008EE0C9D0259A86E02C
:107E300020E33CEF91E0309385002093840096BBD3
:107E4000B09BFECF1D9AA8958150A9F7CC24DD24C4
:107E500088248394B5E0AB2EA1E19A2EF3E0BF2EE7
:107E6000A2D0813461F49FD0082FAFD0023811F036
:107E7000013811F484E001C083E08DD089C08234E0
:107E800011F484E103C0853419F485E0A6D080C0E4
:107E9000853579F488D0E82EFF2485D0082F10E0AE
:107EA000102F00270E291F29000F111F8ED06801E7
:107EB0006FC0863521F484E090D080E0DECF843638
:107EC00009F040C070D06FD0082F6DD080E0C81688
:107ED00080E7D80618F4F601B7BEE895C0E0D1E017
:107EE00062D089930C17E1F7F0E0CF16F0E7DF06D8
:107EF00018F0F601B7BEE89568D007B600FCFDCFD4
:107F0000A601A0E0B1E02C9130E011968C91119780
:107F100090E0982F8827822B932B1296FA010C0160
:107F200087BEE89511244E5F5F4FF1E0A038BF0790
:107F300051F7F601A7BEE89507B600FCFDCF97BE46
:107F4000E89526C08437B1F42ED02DD0F82E2BD052
:107F50003CD0F601EF2C8F010F5F1F4F84911BD097
:107F6000EA94F801C1F70894C11CD11CFA94CF0C13
:107F7000D11C0EC0853739F428D08EE10CD085E9AC
:107F80000AD08FE07ACF813511F488E018D01DD067
:107F900080E101D065CF982F8091C00085FFFCCF94
:107FA0009093C60008958091C00087FFFCCF809118
:107FB000C00084FD01C0A8958091C6000895E0E648
:107FC000F0E098E1908380830895EDDF803219F02E
:107FD00088E0F5DFFFCF84E1DECF1F93182FE3DFCA
:107FE0001150E9F7F2DF1F91089580E0E8DFEE27F6
:047FF000FF270994CA
:027FFE00040479
:00000001FF
